:0500A50012006280FE64
:10006200759403E4F5937592E0F591D297C296D216
:0400720081C28022A5
:0A007600C293120038120080D292EB
:080080007F037E52DEFEDFFC6F
:010088002255
:10000300E590C4333354C0FFE5801313543F4FFFCF
:10001300C454F0FEEFC4540F4EFF25E025E054CC4A
:10002300FEEF131354334EFF25E054AAFEEFC31320
:0400330054554EFFD3
:0100370022A6
:10003800EF139291EFA2E19290A2E29287A2E3924B
:1000480086A2E49285541224FF9284EF541424FF6C
:0A0058009283EF541824FF928222D5
:08009500C294120076C292220F
:08009D00D294120076C29222F7
:0300000002008972
:0C008900787FE4F6D8FD7581070200A521
:00000001FF
