:10000300535443313546324B363053320D0A556122
:0A0013007274204F4E20210D0A00E8
:100026001201481201C375D7CC75D6FF758E1443DD
:100036008E01D2ACD2AF1201A87BFF7A00790312EF
:1000460000BF12015C1201A87F801201707F41126D
:0C00560001837F181201701201A880F6CF
:10014800759403E4F5937592E0F591D297C296D22F
:0401580081C28022BE
:0801CD007F037E52DEFEDFFC21
:0101D5002207
:10006200E590C4333354C0FFE5801313543F4FFF70
:10007200C454F0FEEFC4540F4EFF25E025E054CCEB
:10008200FEEF131354334EFF25E054AAFEEFC313C1
:0400920054554EFF74
:010096002247
:1000E400EF139291EFA2E19290A2E29287A2E3929F
:1000F40086A2E49285A2E59284A2E6928333928258
:0101040022D8
:10011E007FFF1200E4C294D293D292120062C29276
:04012E00EF20E7F5E2
:0101320022AA
:10017000AD0712011EC294C293AF051200E4D292E1
:03018000C2922206
:10018300AD0712011ED294C293AF051200E4D292BE
:03019300C29222F3
:10015C007F381201707F0E1201707F061201707FC2
:04016C00010201701B
:10019600ED7004AC078004EF2440FCEC4480FF02C1
:0201A6000170E6
:100097008B088A09890A120196AB08AA09A90A12CC
:1000A70001056013050AE50A7002050914F9120132
:0800B70005FF12018380E22223
:0A01C300E5A2543FF5A27598502202
:0901D6002000FDEFD200F5992292
:1000BF008B0B8A0C890DAB0BAA0CA90D12010560D5
:1000CF0013050DE50D7002050C14F9120105FF1251
:0500DF0001D680E222C1
:0E01A80000007F5C7E327DEEDDFEDEFCDFFAC5
:0101B6002226
:03002300020133A4
:10013300C0D0309806C298A29A92CC309904C29942
:05014300C200D0D03223
:030000000201B743
:0C01B700787FE4F6D8FD75812002002658
:10010500BB010689828A83E0225002E722BBFE02F8
:09011500E32289828A83E493222B
:00000001FF
