:10008D00535443313546324B363053320D0A5541B8
:10009D00525420446F6E65210D0A004C4344526545
:1000AD0053657420446F6E65210D0A0057616E67AC
:1000BD0059757368756E00CDEAB3C9D2BBB4CECA9B
:1000CD00BEDDD0B4C8EB0D0A00D2BBC3EBD1D3CA91
:0400DD00B10D0A0057
:1000260012020612027375D7CC75D6FF758E14436D
:100036008E01D2ACD2AFC2007FF47E011201997B51
:10004600FF7A00798D1201691201167FF47E011282
:100056000199D2007BFF7A0079A81201697BFF7AA9
:100066000079B9E4FDFF1201417FE87E0312019990
:100076007BFF7A0079C41201691201957BFF7A0031
:0700860079D612016980D652
:10020600759403E4F5937592E0F591D296C297D270
:0602160081C280C29522A6
:070003001202317F647E0050
:10000A00D3EF9400EE9400400D00007D03DDFEEF77
:06001A001F70ED1E80EADC
:0100200022BD
:0B018E00C293AF021201B27F0A7E0094
:10019900D3EF9400EE9400400F7D187C55DCFEDD12
:0801A900FCEF1F70EB1E80E863
:0101B100222B
:1000E100E590C4333354C0FFE5801313543F4FFFF1
:1000F100C454F0FEEFC4540F4EFF25E025E054CC6C
:10010100FEEF131354334EFF25E054AAFEEFC31341
:0401110054554EFFF4
:0101150022C7
:1001B200EF139291EFA2E19290A2E29287A2E392D0
:1001C20086A2E49285A2E59284A2E6928333928289
:0101D200220A
:1001D300C294D293D2921201951200E1AB077F0130
:0901E3007E00120199EB20E7F007
:0101EC0022F0
:10023100AA073000031201D3C29412018ED292C2D6
:02024100922207
:10024300AA073000031201D3D29412018ED292C2B4
:020253009222F5
:100116007F011202311201957F03120231120195FD
:100126007F061200037F0E1200037F141200037F66
:0B013600381202317F647E0002000AD4
:10025500ED7006EF2480F98004EF24C0F9AF0102A8
:02026500023164
:100141008B088A09890A120255AB08AA09A90A1261
:1001510001ED6013050AE50A7002050914F912019F
:08016100EDFF12024380E222CF
:0A027300E5A2543FF5A27598502251
:09027D002001FDEFD201F59922E8
:100169008B088A09890AAB08AA09A90A1201ED6054
:1001790013050AE50A7002050914F91201EDFF12C7
:05018900027D80E2226E
:0300230002021CBA
:10021C00C0D0309806C298A29A92CC309904C29958
:05022C00C201D0D03238
:0300000002026792
:0C026700787FE4F6D8FD758120020026A7
:1001ED00BB010689828A83E0225002E722BBFE0210
:0901FD00E32289828A83E4932243
:00000001FF
