:10009600535443313546324B363053320D0A5541AF
:1000A600525420446F6E65210D0A004C434452653C
:1000B60053657420446F6E65210D0A0049206C6FEC
:1000C600766520746F20444959202D3E00446174A2
:0C00D600653A323030322F382F313600BE
:1000260012020F12027C75D7CC75D6FF758E14435B
:100036008E01D2AC438E805389F0C28DC28CC2A988
:10004600C2B9D2AFC2007FF47E011201A27BFF7A51
:100056000079961201721201177FF47E011201A235
:10006600D2007BFF7A0079B11201727BFF7A0079A8
:10007600C2E4FDFF12014A7BFF7A0079D37D01E4D9
:10008600FF12014A7F107E271201A212028F80DB27
:10020F00759403E4F5937592C0F591D296C297D287
:06021F0081C280C295229D
:0700030012023A7F647E0047
:10000A00D3EF9400EE9400400D00007D03DDFEEF77
:06001A001F70ED1E80EADC
:0100200022BD
:0B019700C293AF021201BB7F017E008B
:1001A200D3EF9400EE9400400F7D187C55DCFEDD09
:0801B200FCEF1F70EB1E80E85A
:0101BA002222
:1000E200E590C4333354C0FFE5801313543F4FFFF0
:1000F200C454F0FEEFC4540F4EFF25E025E054CC6B
:10010200FEEF131354334EFF25E054AAFEEFC31340
:0401120054554EFFF3
:0101160022C6
:1001BB00EF139291EFA2E19290A2E29287A2E392C7
:1001CB0086A2E49285A2E59284A2E6928333928280
:0101DB002201
:1001DC00C294D293D2927F647E001201A21200E2EA
:0901EC00AB0712019EEB20E7F4C1
:0101F50022E7
:10023A00AA073000031201DCC294120197D292C2BB
:02024A009222FE
:10024C00AA073000031201DCD294120197D292C299
:02025C009222EC
:100117007F0112023A7F0A7E001201A27F031202B8
:100127003A7F0A7E001201A27F061200037F0E1299
:1001370000037F141200037F3812023A7F647E00A7
:0301470002000AA9
:05028F007F0102023AAC
:10025E00ED7006EF2480F98004EF24C0F9AF01029F
:02026E00023A52
:10014A008B088A09890A12025EAB08AA09A90A124F
:10015A0001F66013050AE50A7002050914F912018D
:08016A00F6FF12024C80E222B4
:0A027C00E5A2543FF5A27598502248
:090286002001FDEFD201F59922DF
:100172008B088A09890AAB08AA09A90A1201F66042
:1001820013050AE50A7002050914F91201F6FF12B5
:05019200028680E2225C
:03002300020225B1
:10022500C0D0309806C298A29A92CC309904C2994F
:05023500C201D0D0322F
:0300000002027089
:0C027000787FE4F6D8FD7581200200269E
:1001F600BB010689828A83E0225002E722BBFE0207
:09020600E32289828A83E4932239
:00000001FF
