:10000300535443313546324B363053320D0A556122
:0A0013007274204F4E20210D0A00E8
:10005B001201431201BE75D7CC75D6FF758E1443B2
:10006B008E01D2ACD2AF1201A37BFF7A00790312BF
:0E007B0000DBC2951201C8D2951201C880F4B4
:10014300759403E4F5937592E0F591D297C296D234
:0401530081C28022C3
:0801C8007F037E52DEFEDFFC26
:0101D000220C
:10002600E590C4333354C0FFE5801313543F4FFFAC
:10003600C454F0FEEFC4540F4EFF25E025E054CC27
:10004600FEEF131354334EFF25E054AAFEEFC313FD
:0400560054554EFFB0
:01005A002283
:10008900EF139291EFA2E19290A2E29287A2E392FA
:1000990086A2E49285541224FF9284EF541424FF1B
:0A00A9009283EF541824FF92822284
:100119007FFF120089C294D293D292120026C29212
:04012900EF20E7F5E7
:01012D0022AF
:10016B00AD07120119C294C293AF05120089D29246
:03017B00C292220B
:10017E00AD07120119D294C293AF05120089D29223
:03018E00C29222F8
:100157007F3812016B7F0C12016B7F0612016B7FD8
:040167000102016B25
:10019100ED7004AC078004EF2440FCEC4480FF02C6
:0201A100016BF0
:1000B3008B088A09890A120191AB08AA09A90A12B5
:1000C30001006013050AE50A7002050914F912011B
:0800D30000FF12017E80E22211
:0A01BE00E5A2543FF5A27598502207
:0901D1002000FDEFD200F5992297
:1000DB008B0B8A0C890DAB0BAA0CA90D12010060BE
:1000EB0013050DE50D7002050C14F9120100FF123A
:0500FB0001D180E222AA
:0E01A30000007F5C7E327DEEDDFEDEFCDFFACA
:0101B100222B
:0300230002012EA9
:10012E00C0D0309806C298A29A92CC309904C29947
:05013E00C200D0D03228
:030000000201B248
:0C01B200787FE4F6D8FD75812002005B28
:10010000BB010689828A83E0225002E722BBFE02FD
:09011000E32289828A83E4932230
:00000001FF
